:10080000E4F508F509C2A0209019E509640345083C
:100810007004FEFF8009E5092401FFE43508FE8E1F
:10082000088F093090FDE50870DDE50914601114AA
:10083000601F146029240370CE3090CBC2A080F9D1
:100840003090C4120871D2A07F057E001208778014
:10085000EF3090B3120871D2A012087380F3309079
:10086000A6C2A07F057E00120877D2A0120873806E
:01087000ED9A
:06087100C2A07F0A7E0018
:10087700E4FDFCC3ED9FEC9E5015E4FBFA0BBB00B7
:0F088700010ABA0FF8BBA0F50DBD00010C80E40B
:01089600223F
:030000000208975C
:0C089700787FE4F6D8FD758109020800A6
:00000001FF
